:020000040800F2
:10000000080400202D010008350100083701000810
:10001000390100083B0100083D0100080000000014
:100020000000000000000000000000003F01000888
:1000300041010008000000004301000845010008DC
:100040004701000847010008470100084701000870
:100050004701000847010008470100084701000860
:100060004701000847010008470100084701000850
:100070004701000847010008470100084701000840
:100080004701000847010008470100084701000830
:100090004701000847010008470100084701000820
:1000A0004701000847010008470100084701000810
:1000B0004701000847010008470100084701000800
:1000C00047010008470100084701000847010008F0
:1000D00047010008470100084701000847010008E0
:1000E00047010008470100084701000847010008D0
:1000F00047010008470100084701000847010008C0
:1001000047010008470100084701000847010008AF
:1001100047010008DFF810D000F01AF80048004747
:100120000B030008AFF30080080400200648804756
:1001300006480047FEE7FEE7FEE7FEE7FEE7FEE7CC
:10014000FEE7FEE7FEE7FEE759020008150100089A
:10015000064C074D06E0E06840F0010394E8070014
:1001600098471034AC42F6D3FFF7D8FF0C030008D1
:100170002C0300080EB5002001908DF800000290BD
:100180002F48016841F0010101604FF4A06201684D
:10019000C1F340018DF800100299491C02919DF8AD
:1001A000001011B902999142F1D10168C1F34001E7
:1001B0008DF800109DF80010E1B322490A6822F082
:1001C00007020A600A6842F003020A60416841605F
:1001D000416841F400514160416841F4A0614160CF
:1001E0004168194A11404160016C21F0010101642C
:1001F000416800910199154A41F00101019100996E
:1002000011430091416001990164016841F08071DE
:10021000016001688901FCD5416821F0030141605A
:10022000416841F0020141604168C1F38101022946
:10023000FAD10EBDFFE7074905480860F9E700005D
:100240000010024000200240FFFFC0F700003C0801
:1002500000127A00000000201D4810B5016841F42A
:10026000700101601B48016841F0010101604168B3
:10027000194A114041600168184A11400160016843
:1002800021F4802101604168154A114041604FF41A
:100290006051C1620021016412498160C16941F06D
:1002A0008051C161C16921F08051C1610E4801686E
:1002B00041F080010160016821F010010160FFF749
:1002C00059FF03494FF000608039086010BD0000FD
:1002D00088ED00E0001002400CC07FF8FFFFF6FE42
:1002E000FFFFC0F700009F040020024002E008C8A2
:1002F000121F08C1002AFAD170477047002001E0A0
:1003000001C1121F002AFBD17047FEE72C03000831
:100310000000002004000000EC0200083003000888
:100320000400002004040000FC0200080020A107D3
:0400000508000115D9
:00000001FF
